S01C0000415652204275696C64207570206C6962726172792E73726563F5
S11300000C942A000C943C000C943C000C943C008E
S11300100C943C000C943C000C943C000C943C006C
S11300200C943C000C943C000C943C000C943C005C
S11300300C943C000C943C000C943C000C943C004C
S11300400C943C000C943C000C943C000C943C003C
S11300500C943C0011241FBECFE5D8E0DEBFCDBF19
S113006020E0A0E6B0E001C01D92A136B207E1F79E
S11300700E942C020C942E030C940000CF93DF9367
S113008000D0CDB7DEB789836A838A81882309F0DB
S113009076C089818830B0F48BE390E02BE330E0C4
S11300A0F9012081622F2981422F50E021E030E0C4
S11300B002C0220F331F4A95E2F720952623FC0144
S11300C02083CDC089818830D0F089818031B8F413
S11300D088E390E028E330E0F9012081622F298150
S11300E02850422F50E021E030E002C0220F331F9D
S11300F04A95E2F720952623FC012083B0C089812C
S11301008031E0F089818831C8F485E390E025E30B
S113011030E0F9012081622F2981222F30E0A901EA
S11301204051510921E030E002C0220F331F4A95AB
S1130130E2F720952623FC01208391C08981883130
S113014008F48DC08981803208F089C082E390E090
S113015022E330E0F9012081622F2981222F30E04F
S1130160A9014851510921E030E002C0220F331F98
S11301704A95E2F720952623FC01208370C08A81EA
S1130180813009F06CC089818830A8F48BE390E059
S11301902BE330E0F9012081622F2981422F50E0C6
S11301A021E030E002C0220F331F4A95E2F7262BEC
S11301B0FC01208354C089818830C8F08981803152
S11301C0B0F488E390E028E330E0F9012081622F65
S11301D029812850422F50E021E030E002C0220F54
S11301E0331F4A95E2F7262BFC01208338C089810E
S11301F08031C8F089818831B0F485E390E025E34B
S113020030E0F9012081622F29812051422F50E0F2
S113021021E030E002C0220F331F4A95E2F7262B7B
S1130220FC0120831CC089818831C8F08981803217
S1130230B0F482E390E022E330E0F9012081622F00
S113024029812851422F50E021E030E002C0220FE2
S1130250331F4A95E2F7262BFC01208300C00000DF
S11302600F900F90DF91CF910895CF93DF9300D03B
S1130270CDB7DEB789836A838A81882309F076C083
S113028089818830B0F48AE390E02AE330E0F90110
S11302902081622F2981422F50E021E030E002C00A
S11302A0220F331F4A95E2F720952623FC01208371
S11302B0CDC089818830D0F089818031B8F487E35A
S11302C090E027E330E0F9012081622F2981285052
S11302D0422F50E021E030E002C0220F331F4A9544
S11302E0E2F720952623FC012083B0C08981803168
S11302F0E0F089818831C8F484E390E024E330E0BD
S1130300F9012081622F2981222F30E0A901405177
S1130310510921E030E002C0220F331F4A95E2F771
S113032020952623FC01208391C08981883108F41B
S11303308DC08981803208F089C081E390E021E397
S113034030E0F9012081622F2981222F30E0A901B8
S11303504851510921E030E002C0220F331F4A9571
S1130360E2F720952623FC01208370C08A81813026
S113037009F06CC089818830A8F48AE390E02AE30C
S113038030E0F9012081622F2981422F50E021E0E1
S113039030E002C0220F331F4A95E2F7262BFC01FE
S11303A0208354C089818830C8F089818031B0F4B9
S11303B087E390E027E330E0F9012081622F29816F
S11303C02850422F50E021E030E002C0220F331FBA
S11303D04A95E2F7262BFC01208338C089818031BD
S11303E0C8F089818831B0F484E390E024E330E0FC
S11303F0F9012081622F29812051422F50E021E010
S113040030E002C0220F331F4A95E2F7262BFC018D
S113041020831CC089818831C8F089818032B0F47E
S113042081E390E021E330E0F9012081622F29810A
S11304302851422F50E021E030E002C0220F331F48
S11304404A95E2F7262BFC01208300C000000F90A0
S11304500F90DF91CF910895CF93DF93CDB7DEB79F
S11304601092600061E08FE00E94350161E08EE04F
S11304700E94350161E08DE00E94350160E08AE070
S11304800E9435010E94A90261E08DE00E943E00B5
S113049068EE73E080E090E00E94E70260E08DE0A7
S11304A00E943E0068EE73E080E090E00E94E70264
S11304B083E590E02BE0FC01208382E590E0FC01E1
S11304C010828CE590E02AEFFC012083809160008B
S11304D0882F90E081309105B9F08230910539F18F
S11304E0892BB1F561E08DE00E943E0064EF71E07C
S11304F080E090E00E94E70281E08093600060E089
S11305008DE00E943E0024C061E08EE00E943E0027
S1130510000064EF71E080E090E00E94E70282E076
S11305208093600060E08EE00E943E0011C061E0B4
S11305308FE00E943E0064EF71E080E090E00E9452
S1130540E7021092600060E08FE00E943E0000002D
S1130550BDCFCF93DF93CDB7DEB783E590E023E53E
S113056030E0F90120812860FC01208383E590E0DC
S113057023E530E0F90120812F7BFC01208382E513
S113058090E0FC0110828CE590E02AEFFC012083CE
S113059083E590E023E530E0F90120812160FC014E
S11305A0208383E590E023E530E0F9012081226097
S11305B0FC01208383E590E023E530E0F90120810C
S11305C02B7FFC0120830000DF91CF910895CF930E
S11305D0DF9300D000D0CDB7DEB769837A838B83F5
S11305E09C8388E590E028E530E0F90120812160D2
S11305F0FC01208382E590E0FC0110821FC0000012
S113060088E590E0FC018081882F90E08270992732
S1130610892BB1F388E590E028E530E0F9012081E9
S11306202260FC01208389819A81AB81BC8101977E
S1130630A109B10989839A83AB83BC8389819A8197
S1130640AB81BC81892B8A2B8B2BC9F600000F90C0
S11306500F900F900F90DF91CF910895F894FFCFF2
S9030000FC
