S01A0000496E74657272757074735F50726F6A6563742E7372656394
S11300000C942A000C943C000C943C000C94530275
S11300100C943C000C943C000C943C000C943C006C
S11300200C943C000C943C000C943C020C943C005A
S11300300C943C000C943C000C943C000C943C004C
S11300400C943C000C943C000C943C000C943C003C
S11300500C943C0011241FBECFE5D8E0DEBFCDBF19
S113006020E0A0E6B0E001C01D92A536B207E1F79A
S11300700E94B5010C948D020C940000611146C0DD
S1130080883070F44BB321E030E0B90102C0660F50
S1130090771F8A95E2F7CB01809584238BBB089563
S11300A098EF980F983070F448B321E030E0B9012C
S11300B002C0660F771F9A95E2F7CB0180958423DF
S11300C088BB089590EF980F983070F445B321E001
S11300D030E0B90102C0660F771F9A95E2F7CB01B1
S11300E08095842385BB08958851883008F051C0D9
S11300F042B321E030E0B90102C0660F771F8A9550
S1130100E2F7CB018095842382BB0895613009F026
S113011040C0883068F44BB321E030E0B90102C03C
S1130120660F771F8A95E2F7CB01842B8BBB08956A
S113013098EF980F983068F448B321E030E0B901A3
S113014002C0660F771F9A95E2F7CB01842B88BB18
S1130150089590EF980F983068F445B321E030E0AB
S1130160B90102C0660F771F9A95E2F7CB01842B81
S113017085BB08958851883060F442B321E030E0B3
S1130180B90102C0660F771F8A95E2F7CB01842B71
S113019082BB08958830A0F449B321E030E0082EF2
S11301A002C0220F331F0A94E2F750E024233523C0
S11301B0A90102C0559547958A95E2F7CA010895A9
S11301C098EF980F9830A0F446B321E030E0092E60
S11301D002C0220F331F0A94E2F750E02423352390
S11301E0A90102C0559547959A95E2F7CA01089569
S11301F090EF980F9830A0F443B321E030E0092E3B
S113020002C0220F331F0A94E2F750E0242335235F
S1130210A90102C0559547959A95E2F7CA01089538
S113022098EE980F9830A0F440B321E030E0092E06
S113023002C0220F331F0A94E2F750E0242335232F
S1130240A90102C0559547959A95E2F7CA01089508
S11302500895611146C0883070F44AB321E030E05B
S1130260B90102C0660F771F8A95E2F7CB0180952A
S113027084238ABB089598EF980F983070F447B39D
S113028021E030E0B90102C0660F771F9A95E2F7CA
S1130290CB018095842387BB089590EF980F983005
S11302A070F444B321E030E0B90102C0660F771F57
S11302B09A95E2F7CB018095842384BB08958851F5
S11302C0883008F051C041B321E030E0B90102C0E8
S11302D0660F771F8A95E2F7CB018095842381BB53
S11302E00895613009F040C0883068F44AB321E0D1
S11302F030E0B90102C0660F771F8A95E2F7CB019F
S1130300842B8ABB089598EF980F983068F447B30C
S113031021E030E0B90102C0660F771F9A95E2F739
S1130320CB01842B87BB089590EF980F983068F425
S113033044B321E030E0B90102C0660F771F9A95FB
S1130340E2F7CB01842B84BB08958851883060F494
S113035041B321E030E0B90102C0660F771F8A95EE
S1130360E2F7CB01842B81BB08950E94280261E04F
S11303708DE00E94290161E08EE00E94290161E084
S11303808FE00E94290160E08AE00E942901109216
S11303906400109263008BB780628BBF84B7806463
S11303A084BF01E010E0C2E0D0E08091630090914E
S11303B064002091600030916100283E334028F0B1
S11303C0109261001092600001968330910528F02C
S11303D010926400109263000CC081309105B1F05A
S11303E020F08230910519F1E4CF1092640010924C
S11303F0630061E08DE00E943E0060E08EE00E94B8
S11304003E0060E08FE00E943E00CFCF1093640076
S11304100093630060E08DE00E943E0061E08EE0A6
S11304200E943E0060E08FE00E943E00BECFD09369
S11304306400C093630060E08DE00E943E0060E0D1
S11304408EE00E943E0061E08FE00E943E00ADCF4E
S113045083B7886083BF83B78F7B83BF12BE8CE76B
S11304608CBF83B7816083BF83B7826083BF89B742
S1130470826089BF789408951F920F920FB60F92ED
S113048011248F939F938091600090916100019655
S113049090936100809360009F918F910F900FBEA5
S11304A00F901F9018951F920F920FB60F92112460
S11304B02F933F934F935F936F937F938F939F9368
S11304C0AF93BF93EF93FF9381E090E09093640028
S11304D0809363000CC060E08DE00E943E0061E008
S11304E08EE00E943E0060E08FE00E943E008AE0C1
S11304F00E94CA008111EFCFFF91EF91BF91AF919C
S11305009F918F917F916F915F914F913F912F9127
S11105100F900FBE0F901F901895F894FFCF18
S9030000FC
