S010000044435F4D6F746F722E737265631D
S11300000C942A000C943C000C943C000C943C008E
S11300100C943C000C943C000C943C000C943C006C
S11300200C943C000C943C000C9492020C943C0004
S11300300C943C000C943C000C943C000C943C004C
S11300400C943C000C943C000C943C000C943C003C
S11300500C943C0011241FBECFE5D8E0DEBFCDBF19
S113006020E0A0E6B0E001C01D92A236B207E1F79D
S11300700E943E000C9415040C9400004FE150E0E3
S11300806EE170E08DE190E00E948E0021E04BE192
S11300906AE18CE10E94A00021E04FE16EE18DE174
S11300A00E94A00060E070E0CB010E9461022FE397
S11300B082E49FE0215080409040E1F700C00000BE
S11300C060E070E088EC91E40E9461022FE382E436
S11300D09FE0215080409040E1F700C0000060E0C4
S11300E070E086E992E40E9461022FE382E49FE0DB
S11300F0215080409040E1F700C0000060E070E0D3
S113010088EC91E40E9461022FE382E49FE0215095
S113011080409040E1F700C00000C4CFCF93DF934C
S1130120D62FC42F61E00E94D50161E08D2F0E947B
S1130130D50161E08C2F0E94D501DF91CF91089504
S1130140CF93DF93C62FD42F213021F0E8F1223052
S1130150F1F03DC0862F0E94760181110FC08D2FD2
S11301600E947601813051F460E08D2F0E94EA00F4
S113017087EA91E60197F1F700C0000061E08C2F57
S11301800E94EA0060E08D2F0E94EA0020C0842FC4
S11301900E94760181110FC08C2F0E94760181305C
S11301A051F460E08C2F0E94EA0087EA91E60197FF
S11301B0F1F700C0000061E08D2F0E94EA0060E0CA
S11301C08C2F0E94EA0003C060E00E94EA00DF91E5
S11301D0CF910895611146C0883070F44BB321E08B
S11301E030E0B90102C0660F771F8A95E2F7CB01B0
S11301F0809584238BBB089598EF980F983070F402
S113020048B321E030E0B90102C0660F771F9A9528
S1130210E2F7CB018095842388BB089590EF980F73
S1130220983070F445B321E030E0B90102C0660FA4
S1130230771F9A95E2F7CB018095842385BB0895B7
S11302408851883008F051C042B321E030E0B90150
S113025002C0660F771F8A95E2F7CB01809584234D
S113026082BB0895613009F040C0883068F44BB314
S113027021E030E0B90102C0660F771F8A95E2F7EA
S1130280CB01842B8BBB089598EF980F983068F4BA
S113029048B321E030E0B90102C0660F771F9A9598
S11302A0E2F7CB01842B88BB089590EF980F983028
S11302B068F445B321E030E0B90102C0660F771F4E
S11302C09A95E2F7CB01842B85BB08958851883039
S11302D060F442B321E030E0B90102C0660F771F39
S11302E08A95E2F7CB01842B82BB08958830A0F471
S11302F049B321E030E0082E02C0220F331F0A94D4
S1130300E2F750E024233523A90102C0559547950F
S11303108A95E2F7CA01089598EF980F9830A0F4EF
S113032046B321E030E0092E02C0220F331F0A94A5
S1130330E2F750E024233523A90102C055954795DF
S11303409A95E2F7CA01089590EF980F9830A0F4B7
S113035043B321E030E0092E02C0220F331F0A9478
S1130360E2F750E024233523A90102C055954795AF
S11303709A95E2F7CA01089598EE980F9830A0F480
S113038040B321E030E0092E02C0220F331F0A944B
S1130390E2F750E024233523A90102C0559547957F
S11303A09A95E2F7CA0108950895611146C088300C
S11303B070F44AB321E030E0B90102C0660F771F40
S11303C08A95E2F7CB01809584238ABB089598EF40
S11303D0980F983070F447B321E030E0B90102C0BF
S11303E0660F771F9A95E2F7CB018095842387BB2C
S11303F0089590EF980F983070F444B321E030E002
S1130400B90102C0660F771F9A95E2F7CB01809578
S1130410842384BB08958851883008F051C041B3C7
S113042021E030E0B90102C0660F771F8A95E2F738
S1130430CB018095842381BB0895613009F040C0CD
S1130440883068F44AB321E030E0B90102C0660F95
S1130450771F8A95E2F7CB01842B8ABB089598EF26
S1130460980F983068F447B321E030E0B90102C036
S1130470660F771F9A95E2F7CB01842B87BB08950B
S113048090EF980F983068F444B321E030E0B9015C
S113049002C0660F771F9A95E2F7CB01842B84BBC9
S11304A008958851883060F441B321E030E0B90107
S11304B002C0660F771F8A95E2F7CB01842B81BBBC
S11304C008951DBC1CBC2FE027BD20EA26BD2FB516
S11304D0206C2FBD2FB520632FBD2FB5237F2FBDDB
S11304E02FB522602FBD2FB52E7F2FBD2EB5277FB0
S11304F02EBD2EB521612EBD20E030E048EC52E443
S11305000E94B60220E030E04AE755E40E94A803C6
S11305100E94280320EA3FE0C901861B970B9BBD7C
S11305208ABD08951F920F920FB60F9211242F9334
S11305308F939F93809160009091610001969093B6
S11305406100809360008091600090916100883E1A
S1130550934021F410926100109260009F918F915A
S11305602F910F900FBE0F901F9018950E94CA02F2
S11305700C946E030E94670358F00E94600340F0DD
S113058029F45F3F29F00C94570351110C94A203F2
S11305900C945D030E947F0368F39923B1F3552300
S11305A091F3951B550BBB27AA2762177307840782
S11305B038F09F5F5F4F220F331F441FAA1FA9F318
S11305C035D00E2E3AF0E0E832D091505040E69506
S11305D0001CCAF72BD0FE2F29D0660F771F881F67
S11305E0BB1F261737074807AB07B0E809F0BB0B5A
S11305F0802DBF01FF2793585F4F3AF09E3F51056E
S113060078F00C9457030C94A2035F3FE4F3983EF4
S1130610D4F3869577956795B795F7959F5FC9F756
S1130620880F911D9695879597F90895E1E0660FD7
S1130630771F881FBB1F621773078407BA0720F050
S1130640621B730B840BBA0BEE1F88F7E0950895B9
S11306500E94870388F09F5798F0B92F9927B751C4
S1130660B0F0E1F0660F771F881F991F1AF0BA9552
S1130670C9F714C0B13091F00E94A103B1E008950C
S11306800C94A103672F782F8827B85F39F0B93FFE
S1130690CCF3869577956795B395D9F73EF4909505
S11306A08095709561957F4F8F4F9F4F089597F96F
S11306B09F6780E870E060E008959FEF80EC089504
S11306C000240A941616170618060906089500242D
S11306D00A9412161306140605060895092E0394A7
S11306E0000C11F4882352F0BB0F40F4BF2B11F41B
S11306F060FF04C06F5F7F4F8F4F9F4F089557FD7A
S11307009058440F551F59F05F3F71F04795880F7B
S113071097FB991F61F09F3F79F087950895121612
S113072013061406551FF2CF4695F1DF08C01616BE
S113073017061806991FF1CF86957105610508946F
S11307400895E894BB2766277727CB0197F9089586
S11307500E94BB030C946E030E94600338F00E9455
S1130760670320F0952311F00C9457030C945D0358
S113077011240C94A2030E947F0370F3959FC1F38C
S1130780950F50E0551F629FF001729FBB27F00D3B
S1130790B11D639FAA27F00DB11DAA1F649F662790
S11307A0B00DA11D661F829F2227B00DA11D621FDF
S11307B0739FB00DA11D621F839FA00D611D221F99
S11307C0749F3327A00D611D231F849F600D211D7D
S11307D0822F762F6A2F11249F5750409AF0F1F000
S11307E088234AF0EE0FFF1FBB1F661F771F881F69
S11307F091505040A9F79E3F510580F00C94570347
S11308000C94A2035F3FE4F3983ED4F38695779566
S11308106795B795F795E7959F5FC1F7FE2B880F0E
S1110820911D9695879597F90895F894FFCF4A
S9030000FC
